S0130000616E737465756572756E672E7372656360
S11300000C9456000C9473000C9473000C94290601
S11300100C9473000C9473000C9473000C94730090
S11300200C9473000C94AA090C9473000C94730040
S11300300C9473000C9473000C9473000C94730070
S11300400C9473000C9473000C9473000C94730060
S11300500C94E2020C94F1050C9473000C9473005C
S11300600C9473000C94AD050C9473000C94730001
S11300700C9473000C94E2090C9473000C947300B8
S11300800C941C080C9473000C9473000C9473006F
S11300900C9473000C9473000C9473000C94730010
S11300A00C9473000C9473000C94730011241FBE01
S11300B0CFEFDAE0DEBFCDBF11E0A0E0B1E0E2E3D4
S11300C0F0E202C005900D92AC32B107D9F721E0FD
S11300D0ACE2B1E001C01D92A739B207E1F70E947A
S11300E0B5070C9417100C940000E1E8F0E080814F
S11300F08160808380818260808380818B7F808324
S1130100EFE6F0E0808181608083089510925501CC
S1130110E4E8F0E080819181909357018093560147
S11301201182108208958F929F92AF92BF92CF92C4
S1130130DF92EF92FF92809155018823F9F088E9CC
S11301409AE39093570180935601109235011092CF
S11301503601109237011092380110926601109204
S11301606701109268011092690110925E01109269
S11301705F011092600110926101CFC0809156011D
S113018090915701889708F4C8C0809156019091C6
S113019057018C389C4330F08CE89CE390935701D2
S11301A080935601209156013091570180910A01A4
S11301B090910B01289FB001299F700D389F700DFD
S11301C0112480E090E00E94780B60935E017093AC
S11301D05F01809360019093610160915E01709171
S11301E05F01809160019091610120E030E048EC72
S11301F052E40E94D70A60935E0170935F0180937A
S113020060019093610180905E0190905F01A090E5
S11302106001B09061016091080170910901072E9D
S1130220000C880B990B0E947A0B6B017C0120E077
S113023030E040EC50E4C501B4010E94700C9B0115
S1130240AC01C701B6010E94700C60936201709307
S113025063018093640190936501609162017091E0
S11302606301809164019091650120E030E040E2F7
S113027051E40E94D70A60936201709363018093F2
S11302806401909365012091620130916301409172
S113029064015091650160E070E08AE794E40E9493
S11302A0D70A609366017093670180936801909305
S11302B06901609166017091670180916801909174
S11302C0690120E030E040E752E40E94700C609342
S11302D035017093360180933701909338018091F2
S11302E02C01E82FF0E040913501509136016091E6
S11302F0370170913801EE0FFF1FEE0FFF1FE55C11
S1130300FE4F40835183628373838F5F833018F47D
S113031080932C0102C010922C01FF90EF90DF908B
S1130320CF90BF90AF909F908F9008958F929F929F
S1130330AF92BF92CF92DF92EF92FF9280915501DC
S1130340882329F110925701109256011092470107
S1130350109248011092490110924A0110923501FD
S113036010923601109237011092380110926601F2
S113037010926701109268011092690110925E0157
S113038010925F01109260011092610186C0609129
S113039035017091360180913701909138010E94A6
S11303A0490B70933A016093390160916601709131
S11303B0670180916801909169018090000190909B
S11303C00101A0900201B0900301C0900401D090FB
S11303D00501E0900601F0900701A50194010E9437
S11303E0700C23EC35EF48E450E40E94700CA70134
S11303F096010E94D70A26E636E646E650E40E94B5
S1130400700C609358017093590180935A01909332
S11304105B01209166013091670140916801509120
S11304206901C501B4010E94700C23EC35EF48E466
S113043050E40E94700CA70196010E94D70A26E698
S113044036E646E650E40E94700C609358017093BF
S1130450590180935A0190935B0160915801709106
S1130460590180915A0190915B010E94BB0A6093EB
S11304704701709348018093490190934A01609128
S11304804701709148018091490190914A010E946D
S1130490490B70935D0160935C01FF90EF90DF90D6
S11304A0CF90BF90AF909F908F900895CF93DF939C
S11304B0CBE4D1E085E0E2E1F1E0DE0101900D92D0
S11304C08A95E1F78BE80E943907CE010E947207F2
S11304D08091390190913A019F938F9387E191E044
S11304E09F938F93DF93CF930E942D0D8AE80E94F0
S11304F03907CE010E9472070F900F900F900F9052
S11305000F900F90DF91CF910895CF93DF93CBE4B9
S1130510D1E085E0E2E1F1E0DE0101900D928A95FF
S1130520E1F78BEC0E943907CE010E94720780919B
S11305305C0190915D019F938F9387E191E09F937C
S11305408F93DF93CF930E942D0D8AEC0E9439077D
S1130550CE010E9472070F900F900F900F900F9092
S11305600F90DF91CF9108951092350110923601CA
S113057010923701109238011092470110924801ED
S11305801092490110924A010895CF936091350168
S1130590709136018091370190913801C1E020E0DB
S11305A030E0A9010E94D20A8111C0E08C2FCF91C2
S11305B008956091350170913601809137019091D1
S11305C0380108951F920F920FB60F9211248F9342
S11305D09F9381E0809355018CE89CE390935701AD
S11305E080935601109247011092480110924901DC
S11305F010924A0110925D0110925C011092350133
S113060010923601109237011092380110923A017B
S113061010923901109266011092670110926801DC
S11306201092690110925E0110925F0110926001B4
S1130630109261019F918F910F900FBE0F901F90A8
S11306401895A0E0B0E0BC01CD0160547C4981095B
S1130650910920EA30E040E050E00E94DD0C822F56
S113066090E008952F923F924F925F926F927F9203
S11306708F929F92AF92BF92CF92DF92EF92FF92AE
S11306800F931F93CF93DF93382E0E94D9026B01EF
S11306907C0120E030E44CE955E40E946B0C882393
S11306A00CF000C120E030E044ED52E4C701B60193
S11306B00E94D70A4B015C010E945F058C010E94D5
S11306C07805EC010E949105282E20E030E040E2FC
S11306D052E4C501B4010E946B0C88235CF0013E16
S11306E01B4A40F40F2E812C912CF0E2AF2EF2E441
S11306F0BF2EF02D60913501709136018091370144
S11307009091380122E430E645E65BE30E94700CE8
S11307109B01AC0160E070E080E691E40E944E0A27
S113072020E030E040E651E40E944F0A2B013C01F6
S113073020E030E0A9010E94D20A18161CF0412CD6
S1130740512C3201C23F8AE0D80758F42AE939E92A
S113075049E15FE3C301B2010E94700C2B013C012B
S11307601CC0C5358BE0D80758F426E636E646E2C9
S11307705FE3C301B2010E94700C2B013C010DC068
S1130780C93BDB4050F423E333E343E35FE3C301BA
S1130790B2010E94700C2B013C0186E3821550F4D7
S11307A02DEC3CEC4CE45EE3C301B2010E94700CFE
S11307B02B013C0120E030E0A901C701B6010E94F1
S11307C0D20A811104C084E1831508F466C020E0D4
S11307D030E040EA50E4C501B4010E94700C0E946C
S11307E0490BC62F70E080E090E00E947A0B6B0109
S11307F07C01A301920160E070E08FE793E40E9422
S11308004E0A4B015C019B01AC01C701B6010E9479
S11308106B0C882334F0C501B4010E94490BC62F28
S11308200BC020E030E040E251E4C701B6010E9471
S1130830D20A18160CF0CAE0E32CF12C0C2F10E0AD
S1130840C301B2010E94490BC801860F911D8E1588
S11308509F051CF43C2E360E42C0B801110F880BC4
S1130860990B0E947A0B20E030E040E251E40E94B0
S11308704E0A4B015C01B701FF0C880B990B0E94D7
S11308807A0BA50194010E94D20A882344F5C5017C
S1130890B4010E94490B362E22C00F2EFEE03F2EDB
S11308A0F02D1DC00E945F058C010E947805EC01AB
S11308B00E949105282E0F2EF3EE8F2EFDEA9F2E17
S11308C0FCE3AF2EF2E4BF2EF02D0F2EC12CF0E48A
S11308D0DF2EFCE9EF2EF5E4FF2EF02D00CF832D63
S11308E0DF91CF911F910F91FF90EF90DF90CF9008
S11308F0BF90AF909F908F907F906F905F904F903C
S11309003F902F9008951F928F9387E191E09F93DA
S11309108F938AE691E09F938F930E942D0D80EC34
S11309200E9439078AE691E00E9472070F900F90A7
S11309300F900F900F900F900895CF93DF93E09155
S11309402E01F0E0CEE8D1E08881E158FE4F8083AB
S1130950E0912E01F0E0898190E0EE0FFF1FEC574B
S1130960FE4F91838083E0912E01F0E0A0912E014F
S1130970B0E0AA0FBB1FAC57BE4F8D919C912A814A
S1130980922BEE0FFF1FEC57FE4F91838083E09173
S11309902E01F0E08B8190E0EE0FFF1FEB58FE4F2D
S11309A091838083E0912E01F0E0A0912E01B0E0CC
S11309B0AA0FBB1FAB58BE4F8D919C912C81922BDB
S11309C0EE0FFF1FEB58FE4F9183808380912E0121
S11309D08F5F80932E0180912E01853010F010924C
S11309E02E01DF91CF9108951F93CF93DF9340E0C1
S11309F050E01DECFA01E158FE4F908120910E0168
S1130A00919F812D112486958695820F80930E01E6
S1130A10FA01EE0FFF1FDF01AC57BE4F2D913C9141
S1130A20C0910F01D0911001ADECBCEC0E94FC0C04
S1130A309695879596958795C80FD91FD0931001E1
S1130A40C0930F01EB58FE4F20813181E0910C01DE
S1130A50F0910D010E94FC0C9695879596958795CB
S1130A60E80FF91FF0930D01E0930C014F5F5F4F06
S1130A704530510509F0BECFE0912E01F0E0EE0FB4
S1130A80FF1FEC57FE4F80819181DF91CF911F9121
S1130A900895A0E7B1E08C91EEE8F1E0808311962F
S1130AA08C911197818312968C911297828313965D
S1130AB08C911397838314968C91848308958091E9
S1130AC00C0190910D0180349C4960F080910C01DF
S1130AD090910D01813C9A4D40F480910C019091CC
S1130AE00D01089580E89BEB089580E89BEB089541
S1130AF080910F0190911001803F9A4060F08091A5
S1130B000F0190911001893D9E4040F480910F01A6
S1130B1090911001089584EE9CE0089584EE9CE089
S1130B20089580910E018D3318F480910E0108957B
S1130B3084E1089552985A9AEA9AE9E6F0E08081AD
S1130B408062808380818F7E8083089581E090918C
S1130B502D01913009F080E008951F920F920FB695
S1130B600F9211242F933F934F935F936F937F932F
S1130B708F939F93AF93BF93EF93FF938091310132
S1130B80813021F480912F01853020F4809130014F
S1130B908823B1F010922F0116BCE0913001F0E0EF
S1130BA08091CE00E059FE4F8083809130018430E3
S1130BB011F40E944905809130018F5F80933001C8
S1130BC0FF91EF91BF91AF919F918F917F916F9121
S1130BD05F914F913F912F910F900FBE0F901F90F7
S1130BE018951F920F920FB60F9211242F933F93D3
S1130BF04F935F936F937F938F939F93AF93BF9321
S1130C00EF93FF9316BC81E0809331011092300181
S1130C1080912F018F5F80932F01823011F40E9405
S1130C209D0480912F018B3F18F08AEF80932F0150
S1130C30FF91EF91BF91AF919F918F917F916F91B0
S1130C405F914F913F912F910F900FBE0F901F9086
S1130C5018951F920F920FB60F9211248F9381E073
S1130C6080932D0185B1805885B98F910F900FBE67
S1130C700F901F901895009769F020E030E0EFE99D
S1130C80FFE03197F1F700C000002F5F3F4F82175C
S1130C909307A9F70895899A8998089582E390E0C3
S1130CA00E943B068998289881B38F7381BB81B3D6
S1130CB0806381BB0E944B068FE39CE90197F1F7A7
S1130CC000C0000081B38F7381BB81B3806381BB9B
S1130CD00E944B068FE39CE90197F1F700C00000E6
S1130CE081B38F7381BB81B3806381BB0E944B0648
S1130CF08FE39CE90197F1F700C0000081B38F7284
S1130D0081BB8D9A0E944B068FE39CE90197F1F712
S1130D1000C0000081B38F7281BB8D9A0E944B0684
S1130D208FE39CE90197F1F700C000008F9A81B32B
S1130D308F7881BB0E944B068FE39CE90197F1F702
S1130D4000C0000081B38F7081BB0E944B068FE30B
S1130D509CE90197F1F700C000008F9A81B38F7866
S1130D6081BB0E944B068FE39CE90197F1F700C019
S1130D70000081B38F7081BB0E944B068FE39CE916
S1130D800197F1F700C0000081B38F7181BB8C9A89
S1130D900E944B068FE39CE90197F1F700C0000025
S1130DA081B38F7081BB0E944B068FE39CE901974E
S1130DB0F1F700C0000081B38F7381BB81B38063FE
S1130DC081BB0E944B068FE39CE90197F1F700C0B9
S1130DD0000081B38F7081BB0E944B068FE39CE9B6
S1130DE00197F1F700C0000081B3806F81BB0E94BE
S1130DF04B068FE39CE90197F1F700C000000895CA
S1130E00CF93C82F289A882314F48F9A01C08F98FF
S1130E10C6FF02C08E9A01C08E98C5FF02C08D9A8B
S1130E2001C08D98C4FF02C08C9A01C08C980E94A6
S1130E304B0681E090E00E943B06C3FF02C08F9AFC
S1130E4001C08F98C2FF02C08E9A01C08E98C1FF64
S1130E5002C08D9A01C08D98C0FF02C08C9A01C057
S1130E608C980E944B0681E090E00E943B06CF9153
S1130E700895CF93C82F2898882314F48F9A01C01B
S1130E808F98C6FF02C08E9A01C08E98C5FF02C01B
S1130E908D9A01C08D98C4FF02C08C9A01C08C98B1
S1130EA00E944B0681E090E00E943B06C3FF02C013
S1130EB08F9A01C08F98C2FF02C08E9A01C08E988B
S1130EC0C1FF02C08D9A01C08D98C0FF02C08C9AE8
S1130ED001C08C980E944B0681E090E00E943B0682
S1130EE0CF910895CF93DF93EC018881882331F06B
S1130EF021960E94000789918111FBCFDF91CF9148
S1130F00089580E80E9439078AE191E00E947207FF
S1130F1083EC0E94390780E291E00E9472078FE817
S1130F200E94390782E291E00E9472078FEC0E94CE
S1130F30390786E291E00E9472070895E1E9F0E042
S1130F4080818160808380818260808380818B7FC7
S1130F508083E1E7F0E080818260808384EC99E023
S1130F6090939900809398000895E1E6F0E080E87A
S1130F708083108285B7806885BF85B7806885BF08
S1130F803F9A3E9A269A259A579A569A21982298D9
S1130F90239829982A982B9824982C9A6E9A7698B4
S1130FA08098209A819A879A869A859A849A5298E8
S1130FB05A9A549A5098589A279A0E9478080E94EC
S1130FC037080E9495080E9475000E949A050E94A5
S1130FD09E070E944E068CE00E9439070E94C908B1
S1130FE078940E9481072FEF87EA91E62150804090
S1130FF09040E1F700C0000076980E94B40210927D
S11310003201C0E10E94F4048BB18C278BB980912A
S113101032018A30B8F30E945F058C010E94960168
S1131020C8010E9421030E9483040E9456020E9468
S1131030850210923201E6CF1F920F920FB60F92E3
S113104011248F9310929500109294008091320194
S1131050893110F010923201809132018F5F8093B8
S113106032018F910F900FBE0F901F901895CF9360
S1131070DF93E1ECF0E080818E7F808380818D7F3F
S113108080838081846080838081877F8083A0ECDB
S1131090B0E08C9182608C93C3ECD0E088818E7F29
S11310A088838881826088838C9180648C938C91FE
S11310B08F778C938C9180618C938C918F7D8C93A2
S11310C0A2ECB0E08C9184608C938C91877F8C939C
S11310D080818F7E808380818F7D80838FEF80935A
S11310E0D1001092C4008093D400DF91CF91089571
S11310F0E8E6F0E080818E7F8083EBE6F0E080819B
S11311008260808380818460808380818860808322
S1131110808180618083E9E6F0E080818160808362
S113112080818D7F8083E89A0895ECE7F0E08081E8
S11311308064808380818F778083808180628083D4
S113114080818E7F808380818D7F808380818B7F6F
S113115080838081877F808380818F7E8083EBE79B
S1131160F0E080818F7D8083EAE7F0E08081806811
S1131170808380818860808380818E7F808380816A
S113118082608083808184608083808180648083A6
S1131190089583B18E708695809395010E94C5024F
S11311A0882349F01C9904C081E08093110108C090
S11311B0109211016AC080911101882309F465C05D
S11311C080919501833049F128F48130C1F0823057
S11311D091F10895853029F008F449C08630C9F1A9
S11311E00895E4ECF0E0108285B18F7985B98BB174
S11311F08F7380648BB98081836080830895E4EC6D
S1131200F0E0108288B18F7388B98BB18F738064DA
S11312108BB980818C6080830895E4ECF0E01082C7
S11312208BB18F738BB988B18F73806488B98081D7
S11312308C6080830895E4ECF0E0108285B18F79AE
S113124085B988B18F73806488B980818063808315
S11312500895E4ECF0E0108288B18F7388B985B109
S11312608F79806285B98081806380830895E4ECFE
S1131270F0E010828BB18F738BB985B18F79806266
S113128085B980818360808308958091950183303E
S113129049F128F48130C1F0823091F1089585300C
S11312A029F008F449C08630C9F10895E4ECF0E06F
S11312B0108285B18F7985B988B18F73806488B9BC
S11312C08081806380830895E4ECF0E0108288B12B
S11312D08F7388B985B18F79806285B98081806385
S11312E080830895E4ECF0E010828BB18F738BB9A6
S11312F085B18F79806285B9808183608083089508
S1131300E4ECF0E0108285B18F7985B98BB18F73ED
S113131080648BB98081836080830895E4ECF0E07D
S1131320108288B18F7388B98BB18F7380648BB945
S113133080818C6080830895E4ECF0E010828BB1AE
S11313408F738BB988B18F73806488B980818C6006
S1131350808308951F920F920FB60F9211242F933A
S11313603F934F935F936F937F938F939F93AF9329
S1131370BF93EF93FF930E9486000E94C9080E94C6
S113138093000E94D90220E030E24AEF54E40E9424
S11313906B0C882334F0809194010E943203809373
S11313A0CF00FF91EF91BF91AF919F918F917F916A
S11313B06F915F914F913F912F910F900FBE0F90BE
S11313C01F9018951F920F920FB60F9211242F930E
S11313D03F934F935F936F937F938F939F93AF93B9
S11313E0BF93EF93FF93809178008093960180914F
S11313F07900809394010E94A605813019F410921B
S1131400940104C08091940181112FC08091330113
S1131410811130C081E080933401809333012AC06C
S113142082E080933301E8E6F0E08081816080838C
S113143080913301823089F40E94D90220E030E0A7
S11314404AEF54E40E94D20A18164CF08091940199
S11314500E9432038093CF0002C01092CF00EAE7CB
S1131460F0E080818064808308C080913301813002
S1131470F9F6D6CF80913301DBCFFF91EF91BF9185
S1131480AF919F918F917F916F915F914F913F9118
S11314902F910F900FBE0F901F9018955058BB2797
S11314A0AA270E94660A0C94190C0E940B0C38F0AF
S11314B00E94120C20F039F49F3F19F426F40C9486
S11314C0080C0EF4E095E7FB0C94D90BE92F0E946D
S11314D02A0C58F3BA17620773078407950720F09C
S11314E079F4A6F50C94640C0EF4E0950B2EBA2F47
S11314F0A02D0B01B90190010C01CA01A001112416
S1131500FF27591B99F0593F50F4503E68F11A16C1
S1131510F040A22F232F342F4427585FF3CF469552
S113152037952795A795F0405395C9F77EF41F1674
S1131530BA0B620B730B840BBAF09150A1F0FF0F3E
S1131540BB1F661F771F881FC2F70EC0BA0F621F2A
S1131550731F841F48F4879577956795B795F7951A
S11315609E3F08F0B0CF9395880F08F09927EE0FAF
S11315709795879508950E944C0C90F09F3748F4F6
S1131580911116F40C94650C60E070E080E89FE320
S1131590089526F01B16611D711D811D0C94DF0B2F
S11315A00C94FA0B0E94B50B08F481E008950E9494
S11315B0EB0A0C94190C0E94120C58F00E940B0CAC
S11315C040F029F45F3F29F00C94D90B51110C948D
S11315D0650C0C94080C0E942A0C68F39923B1F34F
S11315E0552391F3951B550BBB27AA276217730745
S11315F0840738F09F5F5F4F220F331F441FAA1FD9
S1131600A9F335D00E2E3AF0E0E832D09150504094
S1131610E695001CCAF72BD0FE2F29D0660F771F42
S1131620881FBB1F261737074807AB07B0E809F028
S1131630BB0B802DBF01FF2793585F4F3AF09E3FAD
S1131640510578F00C94D90B0C94650C5F3FE4F3CE
S1131650983ED4F3869577956795B795F7959F5FF0
S1131660C9F7880F911D9695879597F90895E1E03C
S1131670660F771F881FBB1F621773078407BA079B
S113168020F0621B730B840BBA0BEE1F88F7E095F6
S113169008950E94320C88F09F5798F0B92F99272B
S11316A0B751B0F0E1F0660F771F881F991F1AF049
S11316B0BA95C9F714C0B13091F00E94640CB1E03E
S11316C008950C94640C672F782F8827B85F39F03D
S11316D0B93FCCF3869577956795B395D9F73EF4E2
S11316E090958095709561957F4F8F4F9F4F08958A
S11316F0E89409C097FB3EF49095809570956195A8
S11317007F4F8F4F9F4F9923A9F0F92F96E9BB275D
S11317109395F695879577956795B795F111F8CFD9
S1131720FAF4BB0F11F460FF1BC06F5F7F4F8F4F44
S11317309F4F16C0882311F096E911C0772321F03A
S11317409EE8872F762F05C0662371F096E8862FD2
S113175070E060E02AF09A95660F771F881FDAF729
S1131760880F9695879597F90895990F0008550F56
S1131770AA0BE0E8FEEF16161706E807F907C0F013
S113178012161306E407F50798F0621B730B840B1B
S1131790950B39F40A2661F0232B242B252B21F4F5
S11317A008950A2609F4A140A6958FEF811D811D95
S11317B0089597F99F6780E870E060E008958823B2
S11317C071F4772321F09850872B762F07C0662376
S11317D011F499270DC09051862B70E060E02AF037
S11317E09A95660F771F881FDAF7880F9695879565
S11317F097F908959F3F31F0915020F4879577959C
S11318006795B795880F911D9695879597F90895D3
S11318109FEF80EC089500240A9416161706180604
S11318200906089500240A941216130614060506E0
S11318300895092E0394000C11F4882352F0BB0F71
S113184040F4BF2B11F460FF04C06F5F7F4F8F4FD4
S11318509F4F089557FD9058440F551F59F05F3F0F
S113186071F04795880F97FB991F61F09F3F79F0BE
S113187087950895121613061406551FF2CF469540
S1131880F1DF08C0161617061806991FF1CF8695C2
S113189071056105089408950E94320CA0F0BEE71A
S11318A0B91788F4BB279F3860F41616B11D672F4B
S11318B0782F8827985FF7CF869577956795B11D20
S11318C093959639C8F30895E894BB27662777273C
S11318D0CB0197F908950E94B50B08F48FEF089592
S11318E00E94830C0C94190C0E940B0C38F00E947B
S11318F0120C20F0952311F00C94D90B0C94080CC5
S113190011240C94650C0E942A0C70F3959FC1F36A
S1131910950F50E0551F629FF001729FBB27F00D99
S1131920B11D639FAA27F00DB11DAA1F649F6627EE
S1131930B00DA11D661F829F2227B00DA11D621F3D
S1131940739FB00DA11D621F839FA00D611D221FF7
S1131950749F3327A00D611D231F849F600D211DDB
S1131960822F762F6A2F11249F5750409AF0F1F05E
S113197088234AF0EE0FFF1FBB1F661F771F881FC7
S113198091505040A9F79E3F510580F00C94D90B1B
S11319900C94650C5F3FE4F3983ED4F386957795F9
S11319A06795B795F795E7959F5FC1F7FE2B880F6D
S11319B0911D9695879597F90895052E97FB1EF42A
S11319C000940E94F40C57FD07D00E940B0D07FCF5
S11319D003D04EF40C94F40C509540953095219519
S11319E03F4F4F4F5F4F0895909580957095619547
S11319F07F4F8F4F9F4F0895A29FB001B39FC001A7
S1131A00A39F700D811D1124911DB29F700D811D26
S1131A101124911D0895A1E21A2EAA1BBB1BFD01DE
S1131A200DC0AA1FBB1FEE1FFF1FA217B307E407B9
S1131A30F50720F0A21BB30BE40BF50B661F771F11
S1131A40881F991F1A9469F76095709580959095F1
S1131A509B01AC01BD01CF010895AEE0B0E0E3E32A
S1131A60FDE00C94EE0F0D891E8986E08C831A83A9
S1131A7009838FEF9FE79E838D83AE01475E5F4F9F
S1131A806F89788DCE0101960E944F0DEF81F88504
S1131A90E00FF11F10822E96E4E00C940A10ABE0E4
S1131AA0B0E0E5E5FDE00C94E00F6C017B018A01F8
S1131AB0FC0117821682838181FFCCC1CE0101967D
S1131AC03C01F6019381F70193FD859193FF819188
S1131AD07F01882309F4BAC1853239F493FD8591D5
S1131AE093FF81917F01853229F4B60190E00E9431
S1131AF0460FE7CF912C212C312CFFE1F315D8F0C0
S1131B008B3279F038F4803279F08332A1F4232DCA
S1131B1020611DC08D3261F0803369F4232D216072
S1131B2016C0832D8260382EE32DE4603E2E2AC039
S1131B30F32DF8601DC037FC2DC020ED280F2A308E
S1131B4040F08E32B9F436FC81C1232D2064322E4C
S1131B5019C036FE06C08AE0989E200D1124922EEC
S1131B6011C0EAE02E9E200D1124222EF32DF062E6
S1131B703F2E08C08C3621F4832D8068382E02C095
S1131B80883641F4F70193FD859193FF81917F019C
S1131B908111B3CF982F9F7D9554933028F40C5F17
S1131BA01F4F9FE399830DC0833631F0833771F063
S1131BB0833509F059C021C0F801808189830E5F03
S1131BC01F4F88248394912C530113C02801F2E001
S1131BD04F0E511CF801A080B18036FE03C0692D60
S1131BE070E002C06FEF7FEFC5010E943B0F4C0114
S1131BF08201F32DFF773F2E16C0280122E0420E0A
S1131C00511CF801A080B18036FE03C0692D70E03C
S1131C1002C06FEF7FEFC5010E94300F4C01F32D1E
S1131C20F0683F2E820133FC1BC0822D90E08816A1
S1131C309906B0F4B60180E290E00E94460F2A941F
S1131C40F4CFF50137FC859137FE81915F01B60130
S1131C5090E00E94460F21102A9421E0821A9108F4
S1131C608114910471F7E8C0843611F0893641F586
S1131C70F80137FE07C060817181828193810C5F16
S1131C801F4F08C060817181072E000C880B990BCF
S1131C900E5F1F4FF32DFF763F2E97FF09C09095DF
S1131CA08095709561957F4F8F4F9F4FF0683F2EC1
S1131CB02AE030E0A3010E94820F882E861845C0D6
S1131CC0853731F4232D2F7EB22E2AE030E025C053
S1131CD0932D997FB92E8F36C1F018F4883579F099
S1131CE0B5C0803719F0883721F0B0C0E92FE06122
S1131CF0BE2EB4FE0DC0FB2DF460BF2E09C034FE11
S1131D000AC0292F2660B22E06C028E030E005C0A4
S1131D1020E130E002C020E132E0F801B7FE07C064
S1131D2060817181828193810C5F1F4F06C0608145
S1131D30718180E090E00E5F1F4FA3010E94820F2B
S1131D40882E8618FB2DFF773F2E36FE0DC0232DDF
S1131D502E7FA22E891458F434FE0BC032FC09C025
S1131D60832D8E7EA82E05C0B82CA32C03C0B82CBE
S1131D7001C0B92CA4FE0FC0FE01E80DF11D808145
S1131D80803321F49A2D997EA92E09C0A2FE06C0A3
S1131D90B394B39404C08A2D867809F0B394A3FC59
S1131DA011C0A0FE06C0B21488F4280C922C9B1813
S1131DB00EC0B21460F4B60180E290E00E94460FB7
S1131DC0B394F7CFB21418F42B1802C0982C212C1A
S1131DD0A4FE10C0B60180E390E00E94460FA2FE6C
S1131DE017C0A1FC03C088E790E002C088E590E03A
S1131DF0B6010CC08A2D867859F0A1FE02C08BE290
S1131E0001C080E2A7FC8DE2B60190E00E94460F7B
S1131E10891438F4B60180E390E00E94460F9A9446
S1131E20F7CF8A94F301E80DF11D8081B60190E0AB
S1131E300E94460F8110F5CF222009F442CEB6014C
S1131E4080E290E00E94460F2A94F6CFF601868144
S1131E50978102C08FEF9FEF2B96E2E10C94FC0F69
S1131E60FC010590615070400110D8F78095909561
S1131E708E0F9F1F0895FC01615070400190011066
S1131E80D8F7809590958E0F9F1F08950F931F93F9
S1131E90CF93DF93FB01238121FD03C08FEF9FEFDD
S1131EA02CC022FF16C046815781248135814217F8
S1131EB0530744F4A081B1819D012F5F3F4F3183CB
S1131EC020838C93268137812F5F3F4F378326836E
S1131ED014C08B01EC01FB010084F185E02D099510
S1131EE0892BE1F6D80116968D919C91179701964E
S1131EF017969C938E931697CE01DF91CF911F91E5
S1131F000F910895FA01AA27283051F1203181F167
S1131F10E8946F936E7F6E5F7F4F8F4F9F4FAF4FED
S1131F20B1E03ED0B4E03CD0670F781F891F9A1F00
S1131F30A11D680F791F8A1F911DA11D6A0F711DB4
S1131F40811D911DA11D20D009F468943F912AE0C0
S1131F50269F11243019305D3193DEF6CF010895A8
S1131F60462F4770405D4193B3E00FD0C9F7F6CFD9
S1131F70462F4F70405D4A3318F0495D31FD4052A1
S1131F80419302D0A9F7EACFB4E0A6959795879537
S1131F9077956795BA95C9F7009761057105089516
S1131FA09B01AC010A2E06945795479537952795C2
S1131FB0BA95C9F7620F731F841F951FA01D08955A
S1131FC02F923F924F925F926F927F928F929F9245
S1131FD0AF92BF92CF92DF92EF92FF920F931F9333
S1131FE0CF93DF93CDB7DEB7CA1BDB0B0FB6F894E4
S1131FF0DEBF0FBECDBF09942A88398848885F8424
S11320006E847D848C849B84AA84B984C884DF8094
S1132010EE80FD800C811B81AA81B981CE0FD11D78
S11320200FB6F894DEBF0FBECDBFED010895F8944E
S1052030FFCFDC
S1132032CDCC4C3E0000803F0300040080BB14E47E
S11320420C012020202000256400416B6B753A00AE
S10F20522500552F6D006B6D2F680000F9
S9030131CA
